:100000000C9462000C948A000C948A000C948A0070
:100010000C94EC030C948A000C948A000C948A00D3
:100020000C948A000C948A000C948A000C948A0028
:100030000C948A000C948A000C948A000C948A0018
:100040000C949B040C948A000C946E040C94480449
:100050000C948A000C948A000C948A000C948A00F8
:100060000C948A000C948A000000000024002700F1
:100070002A0000000000250028002B0000000000DE
:1000800023002600290004040404040404040202DA
:100090000202020203030303030301020408102007
:1000A0004080010204081020010204081020000012
:1000B0000008000201000003040700000000000027
:1000C0000000060A11241FBECFEFD8E0DEBFCDBF6F
:1000D00023E0A4EFB2E001C01D92A53EB207E1F714
:1000E00012E0A0E0B1E0EEE0FDE102C005900D926B
:1000F000A43FB107D9F710E0C2E6D0E004C02197D1
:10010000FE010E94690EC136D107C9F70E94E304BF
:100110000C94510A0C94000096B19093D903ECE62C
:10012000F0E09081982B9083E8E6F0E08081826097
:10013000808308950895EAE9F3E081E08083809167
:10014000CE039091CF03A091D003B091D1038183CE
:100150009283A383B4830895EFE9F3E081E0808381
:100160008091CE039091CF03A091D003B091D103A1
:1001700081839283A383B4830895E8EAF3E081E066
:1001800080838091CE039091CF03A091D003B09152
:10019000D10381839283A383B4830895E1EBF3E0D9
:1001A00081E080838091CE039091CF03A091D00312
:1001B000B091D10381839283A383B4830895CF92B6
:1001C000DF92EF92FF920F931F93CF93DF937C0107
:1001D0006A0110E000E00C151D0581F0EB01D7016C
:1001E000ED91FC910190F081E02D6991C701099595
:1001F000892B21F00F5F1F4FBE01EDCFC801DF91AA
:10020000CF911F910F91FF90EF90DF90CF900895C5
:10021000FC01918D828D981761F0A28DAE0FBF2FDA
:10022000B11D5D968C91928D9F5F9F73928F90E030
:1002300008958FEF9FEF0895FC01918D828D98179F
:1002400031F0828DE80FF11D858D90E008958FEFDC
:100250009FEF0895FC01818D228D90E0805C9F4F7F
:10026000821B91098F73992708958DEF92E00E9468
:100270002A019C0181E0232B09F480E0089580E0AD
:1002800090E0892B29F00E94350181110C94000027
:100290000895FC01A48DA80FB92FB11DA35ABF4F1B
:1002A0002C91848D90E001968F739927848FA68975
:1002B000B7892C93A089B1898C9180648C93938D9C
:1002C000848D981306C00288F389E02D80818F7D8C
:1002D00080830895EF92FF920F931F93CF93DF9344
:1002E000EC01F62E81E0888F9B8D8C8D981316C0C3
:1002F000E889F989808185FF11C0EE89FF896083D3
:10030000E889F98980818064808381E090E0DF91D1
:10031000CF911F910F91FF90EF9008950B8D10E0FA
:100320000F5F1F4F0F731127E02E8C8D8E110CC0A5
:100330000FB607FCFACFE889F989808185FFF5CFF0
:10034000CE010E944901F1CFEB8DEC0FFD2FF11D85
:10035000E35AFF4FF0820B8FEA89FB89808180622C
:10036000D3CFCF93DF93EC01888D8823B9F0AA898E
:10037000BB89E889F9898C9185FD03C0808186FD60
:100380000DC00FB607FCF7CF8C9185FFF2CF8081AF
:1003900085FFEDCFCE010E944901E9CFDF91CF91DA
:1003A0000895843099F038F48230C1F0833041F000
:1003B000813081F008958730A1F08830C1F0089530
:1003C000809180008F7780938000089580918000D5
:1003D0008F7DF9CF84B58F7784BD089584B58F7DE7
:1003E000FBCF8091B0008F778093B000089580910B
:1003F000B0008F7DF9CFCF93DF93282F30E0F90144
:10040000E255FF4F8491F901E656FF4FD491F9016F
:10041000EA57FF4FC491CC23A1F081110E94D10172
:10042000EC2FF0E0EE0FFF1FE458FF4FA591B491C1
:10043000EC91ED2381E090E009F480E0DF91CF9131
:10044000089580E090E0FACF1F93CF93DF93162FAB
:10045000282F30E0F901E255FF4F8491F901E6566B
:10046000FF4FD491F901EA57FF4FC491CC23A1F07B
:1004700081110E94D101EC2FF0E0EE0FFF1FEE582A
:10048000FF4FA591B4918FB7F894EC91111108C06A
:10049000D095DE23DC938FBFDF91CF911F9108951C
:1004A000DE2BF8CFCF93DF9390E0FC01E656FF4FB1
:1004B00024918A579F4FFC0184918823D1F090E0CA
:1004C000880F991FFC01E859FF4FA591B491FC01D9
:1004D000EE58FF4FC591D49161110EC09FB7F894AB
:1004E0008C91E22FE0958E238C932881E223E88380
:1004F0009FBFDF91CF9108958FB7F894EC91E22BD5
:10050000EC938FBFF6CF8E50806480937C008091F7
:100510007A00806480937A0080917A0086FDFCCF17
:1005200080917800909179000895789484B58260E4
:1005300084BD84B5816084BD85B5826085BD85B587
:10054000816085BDEEE6F0E0808181608083E1E836
:10055000F0E010828081826080838081816080836E
:10056000E0E8F0E0808181608083E1EBF0E0808171
:1005700084608083E0EBF0E0808181608083EAE743
:10058000F0E08081846080838081826080838081CC
:10059000816080838081806880831092C10008958B
:1005A000CF93DF9300D000D0CDB7DEB78FB7F894EC
:1005B0002091F9023091FA024091FB025091FC0225
:1005C00029833A834B835C838FBF69817A818B81D6
:1005D0009C810F900F900F900F90DF91CF91089515
:1005E000682FE091FD02F091FE020190F081E02D74
:1005F0008DEF92E0099590E080E00895CF93C82FA9
:10060000EDECF3E08081C0FB81F980836C2F88E002
:1006100090E00E94770E6C2F87E0CF910C9424021B
:10062000CF93C82FEDECF3E08081C0FB80F980838D
:100630006C2F80E890E00E94770E6C2F88E0CF91BD
:100640000C942402CF93DF93CDB7DEB78DE390E017
:100650000E94A60BBE01675F7F4FED81FE81718313
:1006600060838F8198850E94AD0B8AE090E00E94A4
:10067000A60BDF91CF910895CF92DF92EF92FF9278
:100680000F931F93CF93DF933091B603E091B7039D
:100690008091CD0381FB002700F9282F2170409124
:1006A000C9035091CA036091CB037091CC03809130
:1006B000CE039091CF03A091D003B091D1034817FE
:1006C00059076A077B0708F061C06C017D01C41AF5
:1006D000D50AE60AF70AB701A601F091C103C09155
:1006E000C203D091C3031091C403C090C503D0903E
:1006F000C603E090C703F090C803C816D906EA06FF
:10070000FB0620F48C199D09AE09BF091F920F93B7
:100710001F922F937F936F935F934F931F93DF935A
:10072000CF93FF93BF93AF939F938F938091C00319
:100730008F938091BF038F938091BE038F9380919D
:10074000BD038F938091BC03869583701F928F9316
:100750008091BC0381701F928F9382E291E09F93FE
:100760008F93EF933F930E9422038DB79EB74C96D1
:100770000FB6F8949EBF0FBE8DBFDF91CF911F9132
:100780000F91FF90EF90DF90CF900895AC01BD01E5
:10079000A4CFCF93DF93CDB7DEB7ED81FE81838900
:1007A0008823B9F08DE991E09F938F930E94920B7B
:1007B000BE01675F7F4FED81FE81718360838F8112
:1007C00098850E94AD0B8AE090E00E94A60B0F90E6
:1007D0000F90DF91CF9108951F920F920FB60F9255
:1007E00011242F933F934F935F936F937F938F9336
:1007F0009F93AF93BF93CF93EF93FF9396B1809165
:10080000D903C091D603C9232091D3032823C22B37
:100810008927C8239093D903C0FF05C0E091000148
:10082000F09101010995C1FF05C0E0910201F0912D
:1008300003010995C2FF05C0E0910401F091050193
:100840000995C3FF05C0E0910601F09107010995E4
:10085000C4FF05C0E0910801F09109010995C5FFA9
:1008600005C0E0910A01F0910B010995FF91EF910C
:10087000CF91BF91AF919F918F917F916F915F9138
:100880004F913F912F910F900FBE0F901F90189591
:100890001F920F920FB60F9211242F933F934F93F5
:1008A0005F936F937F938F939F93AF93BF93EF93D8
:1008B000FF938DEF92E00E944901FF91EF91BF916C
:1008C000AF919F918F917F916F915F914F913F91E8
:1008D0002F910F900FBE0F901F9018952F932FB749
:1008E0002F938F939F93EF93FF93E0910D03F091DC
:1008F0000E038081E0911303F091140382FD19C06F
:100900009081809116038F5F8F7320911703821758
:1009100041F0E0911603F0E0E350FD4F958F809396
:100920001603FF91EF919F918F912F912FBF2F91E0
:1009300018958081F6CF1F921FB61F9211242F9316
:100940003F938F939F93AF93BF938091F9029091C0
:10095000FA02A091FB02B091FC023091F80223E070
:10096000230F2D3750F50196A11DB11D2093F802DC
:100970008093F9029093FA02A093FB02B093FC02D9
:100980008091F4029091F502A091F602B091F702E5
:100990000196A11DB11D8093F4029093F502A093DE
:1009A000F602B093F702BF91AF919F918F913F9163
:1009B0002F911F901FBE1F90189526E8230F0296B7
:1009C000A11DB11DD3CF00D000D000D0CDB7DEB770
:1009D0000E94950260E08FE00E94520260E080E198
:1009E0000E94520260E081E10E94520260E082E1D6
:1009F0000E94520260E083E10E94520260E084E1C2
:100A00000E94520260E085E10E94520261E087E0AC
:100A10000E94520261E088E00E94520261E08BE095
:100A20000E94520261E08AE00E94520261E086E088
:100A30000E9452020BE910E010930501009304019B
:100A40002091D60329833091D3033D8384E00E9413
:100A50008C00109307010093060188E00E948C002F
:100A60008CEA90E090930B0180930A010D810C6257
:100A70000093D30380E20E948C008DEB90E0909372
:100A800003018093020182E00E948C008EEC90E0D2
:100A9000909309018093080119811E631093D60376
:100AA00080E10E948C0084E10E9483029C0191E01D
:100AB000293E33400CF490E08091BC0390FB80F918
:100AC0008093BC0380E10E94FB01892B09F0AFC138
:100AD00081E10E94FB01892B09F0ABC192E0990FE3
:100AE0008091BC03897F892B8093BC031092BD0346
:100AF0001092BE031092BF031092C0031092C10364
:100B00001092C2031092C3031092C40380E890E0D5
:100B10000E946F0E9091CD0380FB90F99093CD03CE
:100B2000682F617088E00E94240288E090E00E94B3
:100B30006F0E9091CD0380FB91F99093CD03682FB8
:100B4000617087E00E94240284E190E00E945C0AC8
:100B500089839A83A981BA8152961C92529781E027
:100B600053968C935397E0910D03F0910E0392E00E
:100B70009083E0910D03F0910E031082E091090340
:100B8000F0910A031082E0910B03F0910C0380E1D5
:100B9000808310921503E0911103F091120386E017
:100BA0008083E0910F03F091100380818061808346
:100BB000E0910F03F0911003808188608083E091C1
:100BC0000F03F0911003808180688083E0910F0310
:100BD000F091100380818F7D808320EF32E01B969F
:100BE0003C932E931A9715969C931597CD010296D8
:100BF0009093DE038093DD038BE490E00E945C0A17
:100C00009C01FC01ED5BFF4F108233961082118234
:100C100012821382349610823A978DEF92E091837C
:100C20008083349688EB9BE09183808332978AE0BF
:100C30008083E981FA81318B208BF093B703E093B5
:100C4000B60380EA91E09F938F93FF93EF930E9406
:100C5000C9030E943C030F900F900F900F9089E5FD
:100C6000282E82E0382E90E3492E92E0592E21E181
:100C7000622E22E0722E3BE1C32E32E0D32E4EE9EB
:100C8000A42E42E0B42E0E94D002AB01BC014093DE
:100C9000CE035093CF036093D0037093D103809120
:100CA0009A03882309F443C080919B0390919C038D
:100CB000A0919D03B0919E03481B590B6A0B7B0BBF
:100CC000423351056105710590F110929A03F0913C
:100CD000BC03F695F370F98380E10E94FB01892B38
:100CE00009F4A9C08091BC03897F82608093BC0312
:100CF00060E086E00E9424028091BC0386958370A8
:100D000009810817A1F01F928F9320EB31E03F93E8
:100D10002F938091B7038F938091B6038F930E9496
:100D200022030F900F900F900F900F900F908091D3
:100D30009F03882309F448C08091CE039091CF038C
:100D4000A091D003B091D1034091A0035091A10391
:100D50006091A2037091A303841B950BA60BB70BA4
:100D6000C297A105B10580F10091B6030D831091E2
:100D7000B70310929F032091BC032170298383E164
:100D80000E94FB01892B09F466C08091BC038E7F11
:100D90008093BC038091BC03817019811817A1F066
:100DA0001F928F9324EE31E03F932F938091B703EE
:100DB0008F938091B6038F930E9422030F900F9020
:100DC0000F900F900F900F90E091B603F091B70342
:100DD000008911891E830D83480110E4810E911C46
:100DE000D4018D919C91DC01ED91FC910480F58101
:100DF000E02D09950D811E81065B1F4F892B09F49B
:100E0000A2C0F80180812D813E812D5B3F4F790189
:100E100081114CC081E08083D9018C919D81E92FA3
:100E2000FE812E2F291B281788F51192FACF91E009
:100E300056CE90E054CE81E10E94FB012091BC038C
:100E4000297F892B19F02093BC0352CF2460209373
:100E5000BC0361E04ECF84E10E948302893E93404F
:100E600024F08091BC03816093CF81E080939F0345
:100E70008BEB91E09F938F931F930D810F930E94B3
:100E8000C9030F900F900F900F9084CFF70110823D
:100E90000E94D00269837A838B839C83ED81FE81DB
:100EA000EA5BFF4F6083718382839383D4018D91CA
:100EB0009C91DC01ED91FC910680F781E02D099574
:100EC000ED81FE81EE5BFF4F9081891322C0F70117
:100ED00080812D813E81280F311DD9011C92F8019E
:100EE0001082E091B603F091B703008911891A834B
:100EF0000983012B09F08CC10CEE11E01F930F93B5
:100F0000FF93EF930E94C9030F900F900F900F90E3
:100F100043C0D7019C919F3328F4ED81FE81E90FF6
:100F2000F11D80839F5FF70190830E94D002698347
:100F30007A838B839C83ED81FE81EA5BFF4F608324
:100F4000718382839383D8018C91882329F10E9435
:100F5000D00269837A838B839C83ED81FE81EA5B77
:100F6000FF4F80819181A281B38149815A816B8138
:100F70007C81481B590B6A0B7B0BED81FE81EC5B7E
:100F8000FF4F80819181B0E0A0E0481759076A07C0
:100F90007B0710F0D8011C928091A803882309F4E4
:100FA00061C08BE00E94FB0161E0892B09F060E0E9
:100FB0008BE00E9424021092A8038091A9039091D3
:100FC000AA03A091AB03B091AC034091A40350914C
:100FD000A5036091A6037091A703481759076A07F4
:100FE0007B0708F004C28C019D01041B150B260B26
:100FF000370BB901A8014093C1035093C20360931A
:10100000C3037093C4037F936F935F934F93BF9316
:10101000AF939F938F93BF92AF928091B7038F93BB
:101020008091B6038F930E94C9038091A903909188
:10103000AA03A091AB03B091AC038093A403909357
:10104000A503A093A603B093A7038093C90390932D
:10105000CA03A093CB03B093CC030FB6F894DEBFC2
:101060000FBECDBF8091B103882309F463C08AE02D
:101070000E94FB0161E0892B09F060E08AE00E9498
:1010800024021092B1038091B2039091B303A09116
:10109000B403B091B5034091AD035091AE0360919C
:1010A000AF037091B003481759076A077B0708F030
:1010B000A1C18C019D01041B150B260B370BB90137
:1010C000A8014093BD035093BE036093BF03709388
:1010D000C0037F936F935F934F93BF93AF939F939F
:1010E0008F938FEB92E09F938F938091B7038F93B1
:1010F0008091B6038F930E94C9038091B2039091AF
:10110000B303A091B403B091B5038093AD03909362
:10111000AE03A093AF03B093B0038093C503909345
:10112000C603A093C703B093C8030FB6F894DEBFFD
:101130000FBECDBF8091CD03837009F45CC085E103
:101140000E948302893E93400CF457C18091B803FA
:101150009091B903A091BA03B091BB03892B8A2B5C
:101160008B2B81F48091CE039091CF03A091D0037B
:10117000B091D1038093B8039093B903A093BA03BD
:10118000B093BB034091B8035091B9036091BA0387
:101190007091BB03411551056105710561F18091A5
:1011A000CE039091CF03A091D003B091D103841BC3
:1011B000950BA60BB70B8D3D9540A105B105D8F059
:1011C00080E00E94100380E00E94FE021F9281E0F6
:1011D0008F9383EE92E09F938F938091B7038F93C9
:1011E0008091B6038F930E9422030F900F900F906F
:1011F0000F900F900F9080E090E0892B09F443CD81
:101200000E943501882309F42ACD0E94000027CDD1
:10121000A981BA818C91882309F46ECE3A813F93DB
:1012200089818F93A2E0B2E0BF93AF93FF93EF93D6
:101230000E94C903A981BA814C910D900020E9F761
:10124000CD01019709811A81801B910BF8010F9044
:101250000F900F900F900F900F9030E020E0281724
:1012600039072CF4518151932F5F3F4FF8CF4F3303
:1012700041F4A981BA818C9181118ECE0E943C03E8
:101280008BCE4D3309F088CE42E050E06EE072E044
:1012900089819A810E94840B1091B6030091B70353
:1012A000892B09F04EC0E981FA8101900020E9F70D
:1012B000319729813A81E21BF30B3397C8F1C901B9
:1012C00002960E94330A89839A83F82E89819A8133
:1012D00099279A8389839F938F937F926F920F931D
:1012E0001F930E94C9030F900F900F900F900F90C3
:1012F0000F9080E0FF2021F091E0F91204C081E01E
:101300000E94100349CEAA81AF93B981BF93DF92A7
:10131000CF928091B7038F938091B6038F930E94F1
:10132000C9030F900F900F900F900F900F9034CE35
:10133000EA81EF93F981FF935F924F920F931F938E
:10134000EECF42E050E06CE472E089819A810E9425
:10135000840B892B09F042C0E981FA8101900020B9
:10136000E9F7319729813A81E21BF30B339768F152
:10137000C90102960E94330A89839A83F82E8981D3
:101380009A8199279A8389839F938F93AFE4B2E0E0
:10139000BF93AF930F931F930E94C9030F900F90B9
:1013A0000F900F900F900F9080E0FF2021F0F1E060
:1013B000FF1204C081E00E94FE02EECD0A810F936D
:1013C00019811F933F922F92A4CF2A812F933981A5
:1013D0003F938EE692E09F938F93B0CFBA81BF93F5
:1013E000E981EF932AE832E03F932F93A7CFAC0136
:1013F000BD0101CEAC01BD0164CE1092B8031092C4
:10140000B9031092BA031092BB03BCCEEDEFF2E029
:101410001382128288EE93E0A0E0B0E0848395838B
:10142000A683B78386E191E09183808385EC90E089
:101430009587848784EC90E09787868780EC90E09E
:10144000918B808B81EC90E0938B828B82EC90E08F
:10145000958B848B86EC90E0978B868B118E128E09
:10146000138E148E0895FC0188279927E894219102
:101470002032E9F3293010F02E30C8F32B3241F03E
:101480002D3239F4689404C00E94540A820F911DD1
:10149000219120532A30C0F31EF4909581959F4FDF
:1014A0000895F8940C94850E7AE0979F902D879F6D
:1014B000802D910D112408950F931F93CF93DF93E7
:1014C0009C01029710F422E030E0E091E303F091F8
:1014D000E40390E080E0B0E0A0E0309791F4009762
:1014E00009F445C0821B930B84309105B8F58A81BD
:1014F0009B816115710569F1FB0193838283FE0174
:1015000011C0408151810281138142175307F0F0CD
:101510004217530799F4109761F012960C931297A3
:1015200013961C933296CF01DF91CF911F910F91AB
:1015300008950093E3031093E403F4CF009719F0A8
:101540004817590718F4CA01BD01EF01DF01F8017E
:10155000C4CF9093E4038093E303D1CFFE01E80F5F
:10156000F91F21933193029799838883DCCF80916F
:10157000E1039091E203892B41F480910E01909157
:101580000F019093E2038093E10380910C0190910D
:101590000D01009741F48DB79EB740911001509115
:1015A0001101841B950B4091E1035091E203481710
:1015B000590708F0B8CF841B950B8217930708F4DE
:1015C000B2CFB9016E5F7F4F8617970708F4ABCF94
:1015D000640F751F7093E2036093E103FA01219396
:1015E0003193A1CFCF93DF939C010097E9F0FC01E9
:1015F000329713821282C091E303D091E403DE019B
:1016000090E080E02097A1F480819181280F391F1C
:101610008091E1039091E2038217930709F067C07C
:10162000F093E203E093E103DF91CF910895DA01B3
:10163000AE17BF0708F041C012964D915C91139709
:10164000CD014115510599F7DC011396FC93EE93FA
:1016500012974D915D91A40FB51FEA17FB0781F416
:10166000208131812E5F3F4F240F351FDC01119601
:101670003C932E932281338113963C932E931297A1
:10168000B0E0A0E08A819B810097B1F5FE018191D5
:101690009191E80FF91F8091E1039091E2038E1779
:1016A0009F0711F6109759F51092E4031092E30387
:1016B000D093E203C093E103B7CFB383A283408109
:1016C0005181240F351FA217B30771F44E5F5F4F8E
:1016D0002D913C911197420F531F518340831296D5
:1016E0002D913C9133832283009709F0ADCFF09385
:1016F000E403E093E30398CFDE01EC01C3CF13963C
:101700001C921E921297D4CFFB01DC014150504035
:1017100030F08D910190801919F40020B9F7881BE1
:10172000990B0895B0E0A0E0E8E9FBE00C94420ECC
:10173000FE01359661917191AF018091DD03909129
:10174000DE030E94B60BE2E00C945E0E6091DD03B6
:101750007091DE030E94A40D0895AB01BC0180913D
:10176000DD039091DE030E94B60B0895AFE0B0E078
:10177000ECEBFBE00C94320E7C013B018A01DC01B6
:1017800017961C921E92169713968C9181FFC3C1D7
:101790009AE0292EFE0131964F01D70113969C91B4
:1017A000F30193FD859193FF81913F01882309F413
:1017B00048C1853239F493FD859193FF81913F01B2
:1017C000853229F4B70190E00E94A40DE6CFB12C38
:1017D000412C512CBFE1B51538F08B3209F188F45A
:1017E000803201F1833221F157FC3AC020ED280FFD
:1017F0002A3040F556FE1FC0B29C200D1124B22E97
:1018000006C08D3291F0803379F7689450F8F30177
:1018100093FD859193FF81913F018111DBCF20C022
:10182000689451F8689452F8F2CF689453F8EFCF67
:10183000689454F8ECCF429C200D1124422E6894F9
:1018400055F8E5CF8E3229F456FCFBC0689456F863
:10185000DECF8C3619F4689457F8D9CF8836B9F2B0
:10186000982F9F7D95549330C0F08336A1F1833734
:10187000C1F1833509F05BC0D801CD90DD908D01B9
:101880006B2D70E056FC02C06FEF7FEFC6010E9427
:101890008E0D5C01689457F80AC00C5F1F4FEFE390
:1018A000E983AA24A394B12C6401E89457F853FC6B
:1018B00004C04A141B0409F018F5342CA114B10417
:1018C00031F5332009F469CFB70180E290E00E943E
:1018D000A40D3A94F6CFD8018C9189830E5F1F4FE7
:1018E000E0CFF801C190D1908F016B2D70E056FCD4
:1018F00002C06FEF7FEFC6010E94990D5C01D5CF4A
:10190000B70180E290E00E94A40D4A94D2CFF60184
:1019100057FC859157FE81916F01B70190E00E94BD
:10192000A40D31103A94B1E0AB1AB108C7CF843698
:1019300019F0893609F074C0F80157FE6AC0619148
:101940007191819191918F01E52DEF76DE2E97FFB8
:1019500009C090958095709561957F4F8F4F9F4FEF
:101960006894D7F82AE030E0A4010E94D40DC82E74
:10197000C818AC2C5D2CD6FE0CC0E89450F8CB14E3
:1019800040F4D4FE05C0D2FC03C05D2D5E7E552E12
:10199000AB2C54FE98C0FE01EC0DF11D808180330C
:1019A00009F08AC0652D697E562E752D7870372E08
:1019B00053FC98C050FE92C0BC2CA41418F44C0CDC
:1019C000B42CBA1854FE94C0B70180E390E00E9492
:1019D000A40D52FE09C088E790E051FE02C088E5E0
:1019E00090E0B7010E94A40DCB1408F48DC0CA94F6
:1019F000D12C8FEFC81AD80AC80CD91CD6018E91E9
:101A00006D01B70190E00E94A40D8C149D04B1F704
:101A100058CF61917191072E000C880B990B93CFD1
:101A2000D52CE894D4F82AE030E0853739F1F52D4B
:101A3000F97FDF2E8037A9F058F48835A9F08F366A
:101A4000D9F0F701868197812F96E2E10C944E0E32
:101A50008837B9F7D4FE02C06894D2F820E130E0AC
:101A60000DC06894D4F8F6CF54FE03C02F2F266023
:101A7000D22E20E132E002C028E030E0F801D7FEAB
:101A800015C041915191619171914C875D876E872D
:101A90007F878F01A4016C857D858E859F850E943F
:101AA000D40DC82EC818E894D7F863CF81919191CE
:101AB000AC0170E060E0E9CF52FC02C0A39475CFA6
:101AC000A394A39472CF852D867809F46ECFF6CFB8
:101AD000B70180E290E00E94A40DA394A414C0F387
:101AE000312C70CF342C3A18A41408F46BCFF8CFF3
:101AF000852D867809F478CF8BE251FE80E257FC81
:101B00008DE2B70190E06ECFB70180E390E00E94D4
:101B1000A40DBA9469CF8FEF9FEF96CFFC0105908B
:101B2000615070400110D8F7809590958E0F9F1FDF
:101B30000895FC016150704001900110D8F7809524
:101B400090958E0F9F1F08950F931F93CF93DF9350
:101B5000182F092FEB018B8181FD09C01FEF0FEFBB
:101B6000812F902FDF91CF911F910F91089582FFC8
:101B700014C02E813F818C819D81281739073CF448
:101B8000E881F981CF0101969983888310838E8142
:101B90009F8101969F838E83E3CFE885F985812F0E
:101BA0000995892BA1F3DACFFA01AA27283051F140
:101BB000203181F1E8946F936E7F6E5F7F4F8F4F7E
:101BC0009F4FAF4FB1E03ED0B4E03CD0670F781FDD
:101BD000891F9A1FA11D680F791F8A1F911DA11DC2
:101BE0006A0F711D811D911DA11D20D009F46894FB
:101BF0003F912AE0269F11243019305D3193DEF6A3
:101C0000CF010895462F4770405D4193B3E00FD058
:101C1000C9F7F6CF462F4F70405D4A3318F0495D43
:101C200031FD4052419302D0A9F7EACFB4E0A69526
:101C30009795879577956795BA95C9F70097610548
:101C4000710508959B01AC010A2E0694579547959E
:101C500037952795BA95C9F7620F731F841F951F93
:101C6000A01D08952F923F924F925F926F927F92A4
:101C70008F929F92AF92BF92CF92DF92EF92FF929C
:101C80000F931F93CF93DF93CDB7DEB7CA1BDB0B48
:101C90000FB6F894DEBF0FBECDBF09942A883988ED
:101CA00048885F846E847D848C849B84AA84B984F4
:101CB000C884DF80EE80FD800C811B81AA81B98100
:101CC000CE0FD11D0FB6F894DEBF0FBECDBFED0114
:101CD0000895EE0FFF1F0590F491E02D0994F999F6
:101CE000FECF92BD81BDF89A992780B50895262F21
:101CF000F999FECF1FBA92BD81BD20BD0FB6F894F1
:0E1D0000FA9AF99A0FBE01960895F894FFCF53
:101D0E009A009A009A009A009A009A000000E50341
:101D1E002000000000006A01DF002A0108011C01FA
:101D2E00B10153746174653A206F70656E3D256420
:101D3E002C2073656E73696E673D25642C20696D6A
:101D4E00705F66756E3D256C752C206C6173745FCB
:101D5E00696D705F66756E3D256C752C20696D70B2
:101D6E005F696E703D256C752C206C6173745F69B4
:101D7E006D705F696E703D256C752C2072656D6F90
:101D8E0074655F616C6572743D25642C2072656D9F
:101D9E006F74655F636C6F73653D2564002320006F
:101DAE00536574757020636F6D706C657465640037
:101DBE0053454E53494E473D2564004552524F52AE
:101DCE003A204E65697468657220434C4F53452026
:101DDE006E6F72204F50454E20697320707265737E
:101DEE00736564004F50454E3D2564005265636532
:101DFE0069766564204E554C4C20636F6D6D616E37
:101E0E006400436F6D6D616E643A2025730052411C
:101E1E00005365742052413D256400496E76616C15
:101E2E0069642052412076616C75653A2025640004
:101E3E00556E7265636F676E697A656420524120D4
:101E4E00636F6D6D616E643A2025730052430053CB
:101E5E0065742052433D256400496E76616C696459
:101E6E002052432076616C75653A20256400556ECC
:101E7E007265636F676E697A656420524320636F83
:101E8E006D6D616E643A20257300556E6B6E6F77C3
:101E9E006E20636F6D6D616E643A20257300494E3E
:101EAE005055545F5449434B3D256C753B5354413B
:101EBE0054455F494D505F494E503D256C75004667
:101ECE00554E4354494F4E5F5449434B3D256C7517
:101EDE003B53544154455F494D505F46554E3D2549
:101EEE006C750052454D4F54455F434C4541523D34
:041EFE002564000057
:00000001FF
